S01300004D6963726F5344414D31362E737265638B
S11300000C942A000C9447000C9447000C9449006B
S11300100C9447000C9447000C9447000C94470040
S11300200C9447000C9447000C9447000C94470030
S11300300C9447000C9447000C9447000C94470020
S11300400C9447000C9447000C9447000C94470010
S11300500C94470011241FBECFE5D4E0DEBFCDBF12
S113006010E0A0E6B0E0E0EDFDE102C005900D92E5
S1130070A23DB107D9F723E0A2EDB0E001C01D9283
S1130080A831B207E1F70E947C0D0C94E60E0C94A3
S113009000001F920F920FB60F9211248F9382B318
S11300A0805882BB8F910F900FBE0F901F901895B0
S11300B0CF92DF92EF92FF92FC012093D60030930F
S11300C0D7004093D8005093D9009AB198699AB94F
S11300D0E130F10561F0E230F10569F0EF2B71F4E4
S11300E080B58F7E80BD80B58F7D80BD07C080B513
S11300F0806380BD03C080B5806280BD67307105B8
S1130100E9F03CF46530710559F06630710591F001
S113011023C068307105B1F069307105D1F01CC09D
S113012080B58D7F80BD80B58B7F80BD80B58B7F92
S113013080BD12C080B5826080BD0EC080B5846071
S113014080BD0AC080B5846080BD80B5826080BDFA
S113015003C080B5866080BD0F2EF0EDCF2EF2E196
S1130160DF2EF3E1EF2EF12CF02D2091D60030910B
S1130170D7004091D8005091D900C701B6010E9420
S1130180320E215029B92091D6003091D7004091E8
S1130190D8005091D900C701B6010E94320EDA018D
S11301A0C9010197A109B109892F9A2FAB2FBB2748
S11301B080BDFF90EF90DF90CF9008958091D6009E
S11301C09091D700A091D800B091D9008932934280
S11301D0A105B10534F487E893E10197F1F700C074
S11301E000008091D6009091D700A091D800B091E2
S11301F0D90089389341A105B10534F487EC9FEA0D
S11302000197F1F700C000008091D6009091D700CB
S1130210A091D800B091D900813B9440A105B105CB
S11302204CF48FE39DE023E0815090402040E1F7BF
S113023000C0000008955D9BFECF8CB908950F9314
S11302401F93CF93DF938C01C0E0D0E005C00E94E0
S11302501B010E94DE002196F801EC0FFD1F808136
S11302608111F5CFDF91CF911F910F910895EF92F6
S1130270FF920F931F93CF93DF938C017B01C0E018
S1130280D0E009C0F801EC0FFD1F80810E941B0122
S11302900E94DE002196F80101900020E9F73197D1
S11302A0E01BF10BCE17DF0768F3EA94EF2879F42B
S11302B080E20E941B010E94DE008CE70E941B0169
S11302C00E94DE0085E40E941B010E94DE00DF9193
S11302D0CF911F910F91FF90EF900895CF93DF93EB
S11302E0EB014AE06EED70E00E94750EBE018EEDEA
S11302F090E00E943701DF91CF9108950F93E7B307
S1130300E06FE7BB0EB91DB8EDB1880F991F829558
S11303109295907F9827807F98278E2B8DB98DB1E9
S1130320440F551F440F551F440F551F220F331FF1
S1130330220F331F406C242B282B20612DB96031F0
S1130340710599F024F46430710541F022C06034E1
S1130350710591F060387105B1F01BC08DB18D7FCE
S11303608DB98DB18E7F8DB914C08DB18D7F8DB94E
S11303708DB181608DB90DC08DB182608DB98DB1A3
S11303808E7F8DB906C08DB182608DB98DB18160CB
S11303908DB90F910895E7E8F3E13197F1F700C0C3
S11303A000008FB9779BFECF8FB108958FB9779BEB
S11303B0FECF8FB1089511B881E180B9089594EA10
S11303C096BF06B607FEFDCF91B1987F983071F4C1
S11303D083B984E886BF06B607FEFDCF81B1887F66
S11303E0883131F0803231F482E0089580E008955C
S11303F081E0089583E0089594EA96BF06B607FE67
S1130400FDCF83B984E886BF06B607FEFDCF089505
S113041094EA96BF06B607FEFDCF91B1987F90315E
S113042071F483B984E886BF06B607FEFDCF81B1B7
S1130430887F803431F0803231F482E0089580E0A6
S1130440089581E0089583E0089584E986BF06B69F
S113045004FCFDCF0895CF93C82F84EA86BF06B667
S113046007FEFDCF81B1887F8830B9F7C3B984E82E
S113047086BF06B607FEFDCF81B1887F883119F0AB
S11304800E942502EACFCF91089583B984E886BFFC
S113049006B607FEFDCF81B1887F883221F0803314
S11304A021F481E0089580E0089582E0089584ECC9
S11304B086BF06B607FEFDCF83B1089584E886BFE4
S11304C006B607FEFDCF83B10895CF93DF93EC0109
S11304D080ED0E94DF0180E00E94450281ED0E94D0
S11304E008020E9457028093F2020E9457028093EE
S11304F0F3020E945E028093F8020E94250250914A
S1130500F802652F60724091F202242F207730E0C8
S113051035952795359527953595279535952795BF
S1130520842F8F70220F422F440F440F240F482F23
S1130530420F4093F2028091F302282F207730E09B
S1130540359527953595279535952795359527958F
S1130550982F9F70220F822F880F880F280F290F42
S11305602093F302852F807190E09595879595955A
S1130570879595958795959587955F70880F982FA2
S1130580990F990F890F850F8093F8024883809102
S1130590F30289838091F8028A836B83DF91CF9180
S11305A00895CF93DF93EC0180ED0E94DF0183E097
S11305B00E94450281ED0E9408020E945702809326
S11305C00E030E94570280930F030E9457028093E8
S11305D0F1020E945E02809309030E942502309179
S11305E00F03832F807390E0959587959595879554
S11305F09595879595958795932F9F70880F382F9C
S1130600330F330F830F392F380F30930F0320919B
S1130610F102822F807190E0959587959595879545
S113062095958795959587952F70880F982F990F95
S1130630990F890F820F8093F10220910903922F61
S113064092959F70422F4F70990F292F220F220FDE
S1130650920F940F9093090320910E032C833D83F2
S11306608E839F83DF91CF910895FF920F931F9301
S1130670CF93DF93D42F152F062FF72EC22F80642C
S11306800E94CB018F2D0E94CB01802F0E94CB01B1
S1130690812F0E94CB018D2F0E94CB018C2F816072
S11306A00E94CB01DF91CF911F910F91FF9008958C
S11306B0CF938BB381608BBB87E893E10197F1F70C
S11306C000C00000C0E007C08BB38E7F8BBB8FEFF0
S11306D00E94CB01CF5FC035B8F38BB381608BBB75
S11306E08FEF0E94CB01CF910895CF93C0E003C058
S11306F0CF5FC93030F48FEF0E94D6018F3FC1F332
S113070001C080E8CF910895CF938FEF0E94D60166
S11307108BB38E7F8BBB8FEF0E94D60124E940E020
S113072050E0BA0180E00E9435030E947503C82F8F
S11307308FEF0E94D6018BB381608BBB8FEF0E9439
S1130740D6018C2FCF910895CF93DF93EC010E94B3
S113075075038883823080F48FEF0E94D6018983E9
S11307608FEF0E94D6018A838FEF0E94D6018B837C
S11307708FEF0E94D6018C83DF91CF910895CF93A0
S1130780DF93EC018FEF0E94D6018BB38E7F8BBB7E
S11307908FEF0E94D60126E84AEA51E060E070E05B
S11307A088E00E943503CE010E94A4038FEF0E94CB
S11307B0D6018BB381608BBB8FEF0E94D601DF9192
S11307C0CF910895CF93DF93EC018FEF0E94D60170
S11307D08BB38E7F8BBB8FEF0E94D60120E040E06D
S11307E050E0BA018AE30E943503CE010E94A403BB
S11307F08FEF0E94D6018BB381608BBB8FEF0E9479
S1130800D601DF91CF910895CF938FEF0E94D60147
S11308108BB38E7F8BBB8FEF0E94D60120E040E02C
S113082050E0BA0187E30E9435030E947503C82F84
S11308308FEF0E94D6018BB381608BBB8FEF0E9438
S1130840D6018C2FCF910895CF938FEF0E94D601BC
S11308508BB38E7F8BBB8FEF0E94D60120E040E0EC
S113086050E060E070E489E20E9435030E94750361
S1130870C82F8FEF0E94D6018BB381608BBB8FEFA3
S11308800E94D6018C2FCF9108950F931F93CF937D
S1130890DF9300D000D01F92CDB7DEB70E9458037B
S11308A000E003C00F5F0B3070F50E948403182F23
S11308B089838130B9F7CE0101960E94BF038981F3
S11308C0813041F58D818A3A01F510E01536F8F44E
S11308D00E9404048983823018F40E9424048983CA
S11308E08FE493EC0197F1F700C000001F5F89814A
S11308F08111ECCFCE0101960E94E2038A81882304
S113090044F014E007C010E005C012E003C013E097
S113091001C015E0812F0F900F900F900F900F9052
S1130920DF91CF911F910F910895CF92DF92EF92B3
S1130930FF920F931F93CF93DF93EC016A017B0126
S113094087E99AE30197F1F700C000008FEF91E087
S1130950FE019C01119221503040E1F78FEF0E947B
S1130960D6018BB38E7F8BBB8FEF0E94D60120E024
S1130970B701A60181E10E9435030E947503D82EB8
S11309803FEF831307C02AC08FEF0E94D6018F3F29
S113099021F009C000E010E080E00F5F1F4F043237
S11309A094EF190789F78E3FC9F40CC07E01EFEF6D
S11309B0EE1AFE0A8FEF0E94D60188830F5F1F4F45
S11309C0E70102C000E010E00115F2E01F0770F338
S11309D08FEF0E94D6018FEF0E94D6018FEF0E9405
S11309E0D6018BB381608BBB8FEF0E94D6018D2D16
S11309F0DF91CF911F910F91FF90EF90DF90CF90F7
S1130A000895CF92DF92EF92FF920F931F93CF93AB
S1130A10DF938C016A017B0187EA91E60197F1F784
S1130A2000C000008FEF0E94D6018BB38E7F8BBB7A
S1130A308FEF0E94D60120E0B701A60188E10E9451
S1130A4035030E947503811126C08EEF0E94D601E2
S1130A50C0E0D0E007C0F801EC0FFD1F80810E94C8
S1130A60D6012196C11592E0D907A8F3C12CD12C47
S1130A70760105C08FEF0E94D6018F3F61F48FEF9E
S1130A80C81AD80AE80AF80A94E2C91694EFD906F3
S1130A90E104F10479F7DF91CF911F910F91FF9059
S1130AA0EF90DF90CF900895CF92DF92EF92FF9274
S1130AB00F931F9311E0180F40E050E0BA0182EF4A
S1130AC090E00E94950420E1129FC0011124FC01D2
S1130AD0EC55FD4F20812B502230D8F5FC01E85510
S1130AE0FD4F2081FC01E755FD4F408150E0542F1C
S1130AF04427052E000C660B770B6A017B01C20E9E
S1130B00D11CE11CF11CFC01E655FD4F408150E075
S1130B1060E070E0BA01552744274C0D5D1D6E1D41
S1130B207F1DFC01E555FD4F808190E0A0E0B0E021
S1130B30B82FAA2799278827840F951FA61FB71FA8
S1130B408093FD029093FE02A093FF02B0930003F2
S1130B5008C01092FD021092FE021092FF02109241
S1130B6000034091FD025091FE026091FF027091DA
S1130B70000382EF90E00E9495048091F1028A3A8A
S1130B8009F076C08091F002853509F071C0E2EF7A
S1130B90F0E0858590E0A0E0B0E0809301039093BD
S1130BA00203A0930303B0930403C784D12CDC2C69
S1130BB0CC248685C80ED11C0D2C000CEE08FF0831
S1130BC08091FD029091FE02A091FF02B09100037A
S1130BD0C80ED91EEA1EFB1EC0920503D09206035E
S1130BE0E0920703F092080326A1822F90E0A0E090
S1130BF0B0E0BC015527442785A190E0982F8827B1
S1130C00480F591F611D711D84A19A01AB01280F62
S1130C10311D411D511DA089B0E00E94540E609306
S1130C20DA007093DB008093DC009093DD00DC013C
S1130C30CB018C0D9D1DAE1DBF1D8093F4029093BE
S1130C40F502A093F602B093F702848590E0982F02
S1130C5088272385820F911D092E000CAA0BBB0B3C
S1130C608093100390931103A0931203B093130382
S1130C7080E01F910F91FF90EF90DF90CF90089547
S1130C804F925F926F927F928F929F92AF92BF9298
S1130C90EF92FF920F931F93CF93DF93EC01E12C1C
S1130CA0F12C01E010E05CC04091F4025091F50297
S1130CB06091F6027091F702480D591D6A1D7B1D63
S1130CC082EF90E00E94950420E030E03CC0F901FE
S1130CD0EE50FF4F90818881981799F001E010E061
S1130CE02DC0F901E80FF91FEE50FF4F5081FE01AE
S1130CF0E80FF91F4081541711F000E010E001964D
S1130D0004C080E090E001E010E0FE0101900020CA
S1130D10E9F73197EC1BFD0B8E179F0710F30115B4
S1130D20110549F03093D3002093D20024013501FA
S1130D3002E010E00DC00230110551F0023011053F
S1130D4039F02F5F3F4F203E81E0380708F4BFCFD2
S1130D5002301105B1F08FEFE81AF80A00E010E054
S1130D604701A12CB12C8091010390910203A09121
S1130D700303B091040388169906AA06BB0608F477
S1130D8093CF0230110509F058C0D301C201072ED8
S1130D9079E0880F991FAA1FBB1F7A95D1F7702D90
S1130DA0E091D200F091D3008E0F9F1FA11DB11DC1
S1130DB08093F9029093FA02A093FB02B093FC0291
S1130DC0DF01A95FBE4F4C9150E060E070E09A01F2
S1130DD011270027DF01AA5FBE4F8C9190E0982F66
S1130DE088279295907F092E000CAA0BBB0BAC01AF
S1130DF0BD01400F511F621F731FDF01A35FBE4F70
S1130E008C9190E0982F8827092E000CAA0BBB0B1D
S1130E10840F951FA61FB71FE45FFE4F2081820F2A
S1130E20911DA11DB11D8093140390931503A093EC
S1130E301603B093170380E001C081E0DF91CF91E6
S1130E401F910F91FF90EF90BF90AF909F908F9064
S1130E507F906F905F904F9008952F923F924F92A2
S1130E605F926F927F928F929F92AF92BF92CF9236
S1130E70DF92EF92FF920F931F93CF93DF93822E13
S1130E80912CA12CB12C009101031091020320910B
S1130E9003033091040380169106A206B30608F0FA
S1130EA0E9C02A013B010E9440068111E5C0C090BF
S1130EB01403D0901503E0901603F0901703C0E0DC
S1130EC0D0E090C0D701C601689416F8B695A795EE
S1130ED0979587951694D1F7382E330C212CA601BB
S1130EE0DD2014F441585F4F440F452F441F550B28
S1130EF0052E000C660B770B809105039091060379
S1130F00A0910703B0910803480F591F6A1F7B1F64
S1130F1082EF90E00E949504A101330C660B770BDD
S1130F20D701C601880F991FAA1FBB1F880F991FDD
S1130F30AA1FBB1F841B950BA60BB70BFC01EE501D
S1130F40FF4F2081AC01BD014F5F5F4F6F4F7F4F5B
S1130F50FA01EE50FF4F408150E060E070E0762FE0
S1130F60652F542F4427420F511D611D711D8C01A3
S1130F709D010E5F1F4F2F4F3F4FF801EE50FF4F63
S1130F80008110E020E030E0980111270027400F95
S1130F90511F621F731F0396A11DB11DFC01EE506A
S1130FA0FF4F008110E020E030E0302F222711278E
S1130FB00027400F511F621F731FDB01CA010197F5
S1130FC0A109B1098E3F9F4FAF4FBF4088F4CE01B6
S1130FD0A0E0B0E0481659066A067B064CF021965C
S1130FE06A017B01411451046104710409F06ACF60
S1130FF0CE01A0E0B0E084159505A605B70554F42C
S113100040E052E06FEF70E082EF90E00E946E0EDD
S113101082E033C082E0C81AD108E10888EFF80AF8
S1131020CC0CDD1CEE1CFF1CCC0CDD1CEE1CFF1CD0
S1131030CC0CDD1CEE1CFF1CCC0CDD1CEE1CFF1CC0
S1131040CC0CDD1CEE1CFF1C4091F4025091F50207
S11310506091F6027091F7024C0D5D1D6E1D7F1DAF
S1131060480D591D6A1D7B1D82EF90E00E94950476
S113107080E003C083E001C081E0DF91CF911F9144
S11310800F91FF90EF90DF90CF90BF90AF909F9023
S11310908F907F906F905F904F903F902F90089526
S11310A02F923F924F925F926F927F928F929F9274
S11310B0AF92BF92CF92DF92EF92FF920F931F9362
S11310C0CF93DF93EC012A013B01822E912CA12CBA
S11310D0B12C4091F4025091F5026091F6027091A6
S11310E0F702480D591D6A1D7B1D405C514C6F4F22
S11310F07F4F82EF90E00E9401052FE38DE093E0A3
S1131100215080409040E1F700C00000809101032D
S113111090910203A0910303B091040388169906E9
S1131120AA06BB0608F0FDC0CE010E944006C82FE7
S11311308111F9C0C0901403D0901503E0901603F8
S1131140F0901703D0E091C0D701C601689416F857
S1131150B695A795979587951694D1F7382E330CA5
S1131160212CA601DD2014F441585F4F440F452F74
S1131170441F550B052E000C660B770B809105035D
S113118090910603A0910703B0910803480F591FDB
S11311906A1F7B1F82EF90E00E949504A101330C2B
S11311A0660B770BD701C601880F991FAA1FBB1FB7
S11311B0880F991FAA1FBB1F841B950BA60BB70B87
S11311C0FC01EE50FF4F50818C019D010F5F1F4FBA
S11311D02F4F3F4FF801EE50FF4F008110E020E009
S11311E030E0322F212F102F0027050F111D211D54
S11311F0311DAC01BD014E5F5F4F6F4F7F4FFA0150
S1131200EE50FF4F408150E060E070E0BA01552796
S11312104427040F151F261F371F0396A11DB11D58
S1131220FC01EE50FF4F408150E060E070E0742F0D
S1131230662755274427400F511F621F731FDB0188
S1131240CA010197A109B1098E3F9F4FAF4FBF401B
S113125090F48D2F90E0A0E0B0E0481659066A069D
S11312607B064CF0DF5F6A017B0141145104610489
S1131270710409F069CF8D2F90E0A0E0B0E08415EF
S11312809505A605B70554F440E052E06FEF70E011
S113129082EF90E00E946E0EC2E046C04091F402DC
S11312A05091F5026091F6027091F702480D591DB4
S11312B06A1D7B1D405C514C6F4F7F4F82EF90E065
S11312C00E94950482E0C81AD108E10888EFF80A60
S11312D0CC0CDD1CEE1CFF1CCC0CDD1CEE1CFF1C1E
S11312E0CC0CDD1CEE1CFF1CCC0CDD1CEE1CFF1C0E
S11312F0CC0CDD1CEE1CFF1C4091F4025091F50255
S11313006091F6027091F7024C0D5D1D6E1D7F1DFC
S1131310480D591D6A1D7B1D82EF90E00E94010556
S113132003C0C3E001C0C1E08C2FDF91CF911F91B6
S11313300F91FF90EF90DF90CF90BF90AF909F9070
S11313408F907F906F905F904F903F902F90089573
S11313508130910521F487EA0E9445020895892B82
S113136019F486EA0E9445020895CF93C82F81E8B4
S11313700E9445028C2F0E944502CF910895CF937D
S1131380DF938830D0F46623C4F0D62FC82F80931F
S1131390D5006093D40081E20E9445028D2F0E9403
S11313A045028FE70E94450282E20E9445028C2F8B
S11313B00E94450287E00E944502DF91CF91089583
S11313C00F931F93CF9388E70E94FC0160E080E0B5
S11313D00E94BF0900E010E017C088E70E94FC01EA
S11313E080E40E944502C0E00BC080E00E944502F8
S11313F084E886BF06B607FEFDCF0F5F1F4FCF5FA1
S1131400C03198F30E942502011582E0180728F3E1
S1131410CF911F910F9108951F93CF93DF93EC0108
S1131420162F81B3806F81BB82B3806F82BB2FE79D
S11314308AE196E0215080409040E1F700C000002E
S113144088E70E942B028EEA0E94450285ED0E94E5
S1131450450280EF0E94450288EA0E9445028FE31C
S11314600E94450283ED0E94450280E00E944502ED
S113147080E40E9445028DE80E94450284E10E94B6
S1131480450280E20E94450280E00E94450281EA12
S11314900E94450288EC0E9445028AED0E944502A2
S11314A082E10E944502812F0E94B50989ED0E94C4
S11314B0450281EF0E9445028BED0E94450280E4C3
S11314C00E9445028DE80E94450284E10E94450283
S11314D084EA0E944502CE010E94A8098FEA0E9474
S11314E045020E94E009DF91CF911F9108958F92E8
S11314F09F92AF92BF92CF92DF92EF92FF920F939F
S11315001F93CF93DF935C010E94E00988E70E9458
S1131510FC0160E080E00E94BF090E942502C0E057
S1131520D0E075C088E70E94FC0180E40E94450277
S1131530E12CF12C65C0C038D10530F4F501EC0F75
S1131540FD1F80810E9445028E0100581109003858
S1131550110538F4F501E00FF11F808186950E9492
S113156045024E019A9480E88816910430F4F501FE
S1131570E00FF11F80810E9445028E010058114046
S11315800038110538F4F501E80DF91D80818695C0
S11315900E9445026E0182E0D81A80E8C816D10480
S11315A030F4F501E80DF91D80810E944502CE0159
S11315B0805892408038910538F4F501E00FF11F0E
S11315C0808186950E944502CE0193508038910512
S11315D030F4F501E00FF11F80810E944502CE0135
S11315E0805893408038910538F4F501EC0DFD1DC9
S11315F0808186950E94450221968FEFE81AF80AA9
S113160080E1E816F1040CF496CF0E942502C1157E
S113161084E0D80708F486CFDF91CF911F910F9112
S1131620FF90EF90DF90CF90BF90AF909F908F90FE
S1131630089580E092E0E2EFF0E0DF019C011D926A
S113164021503040E1F721E040E050E0BA0185E666
S113165090E00E94500821E040E050E0BA0185E6A5
S113166090E00E942D0782EF90E00E94770A08958F
S1131670603208F069C088230CF466C09CEF960FB2
S1131680943070F094EF960F943060F09CEE960FC7
S1131690943050F094EE960F943040F090E007C0F0
S11316A091E005C091E003C091E001C091E0362FC4
S11316B03695369536956370660F690F90E070E83D
S11316C0379F800D911D11243FEF320F323060F0AF
S11316D0243051F0283041F0203131F0203221F013
S11316E0203411F02038B9F4611107C0FA01E80F71
S11316F0F91F2081216020830895FA01E80FF91F62
S113170021E030E002C0220F331F6A95E2F73081F6
S1131710232B20830895211117C0611107C0FA01FA
S1131720E80FF91F20812E7F20830895FA01E80F26
S1131730F91F21E030E002C0220F331F6A95E2F75F
S113174020953081232320830895EF92FF921F93E5
S1131750CF93DF93182FC62F7A01D22F21700E94C6
S1131760380B2D2F227061E06C0FA701812F0E948E
S1131770380B2D2F247062E06C0FA701812F0E947B
S1131780380B2D2F287063E06C0FA701812F0E9466
S1131790380B2D2F207164E06C0FA701812F0E945C
S11317A0380B2D2F207265E06C0FA701812F0E944A
S11317B0380B2D2F207466E06C0FA701812F0E9437
S11317C0380B2D2F207867E06C0FA701812F0E9422
S11317D0380BDF91CF911F91FF90EF9008959F9266
S11317E0AF92BF92CF92DF92EF92FF920F931F932B
S11317F0CF93DF93942E8C01000F111F000F111F44
S1131800080F191FE801C05AD109D62EDD0CDD0CD2
S1131810D60E20E040E050E0BA0185E690E00E9458
S11318202D07CE50DF4FE880F801ED5AFF4FF080CE
S1131830F801EC5AFF4FA080F801EB5AFF4FC0802B
S1131840F801EA5AFF4FB08021E040E050E0BA01CD
S113185085E690E00E942D07092D10E0CD2DD0E003
S11318602E2D30E042EF50E0B801CE010E94A50BCE
S11318702F2D30E042EF50E0B801CE0101960E94D6
S1131880A50B2A2D30E042EF50E0B801CE010296BC
S11318900E94A50B2C2D30E042EF50E0B801CE01A0
S11318A003960E94A50B2B2D30E042EF50E0B801C7
S11318B0CE0104960E94A50B21E040E050E0BA015D
S11318C085E690E00E945008DF91CF911F910F911F
S11318D0FF90EF90DF90CF90BF90AF909F900895CE
S11318E0FF920F931F93CF93DF938C01F62ED42F87
S11318F0C0E00BC0F801E80FF91F80816C2F6F0D59
S11319004D2F90E00E94EF0BCF5F8C2F90E0F801F9
S113191001900020E9F73197E01BF10B8E179F0728
S113192048F382EF90E00E94770ADF91CF911F91F4
S11319300F91FF900895BF92CF92DF92EF92FF92A2
S11319400F931F93CF93DF93CDB7DEB72A970FB6CC
S1131950F894DEBF0FBECDBF6B017C01142FB22EF5
S1131960202F30E0AE014F5F5F4F0E94800E0A309F
S113197091F00031F1F0023051F582E0C816D10443
S1131980E104F10430F54B2D612F83E690E00E94D1
S1131990700C81E023C08AE0C816D104E104F1048C
S11319A0D0F44B2D612F83E690E00E94700C81E00F
S11319B015C080E1C816D104E104F10470F44B2D84
S11319C0612F83E690E00E94700C81E007C080E004
S11319D005C080E003C080E001C080E0813041F4B4
S11319E061E0610F4B2DCE0101960E94700C06C080
S11319F04B2D612FCE0101960E94700C2A960FB6D2
S1131A00F894DEBF0FBECDBFDF91CF911F910F9130
S1131A10FF90EF90DF90CF90BF900895DF92EF9208
S1131A20FF920F931F93CF93DF93CDB7DEB7279722
S1131A300FB6F894DEBF0FBECDBFF82E162FCE0121
S1131A4001960E946502CE0101960E94D1026B812B
S1131A5070E080E090E00AE0212F4F2D0E949B0C63
S1131A606894DD24D1F8DF0C412F6D2D8DE690E0D4
S1131A700E94700C0F2EF3E0EF2EF02DEF0C6A8114
S1131A8070E080E090E0212F4E2D0E949B0C185FA7
S1131A906F8170E080E090E0212F4F2D0E949B0C1D
S1131AA0412F6D2D8FE690E00E94700C6E8170E0E6
S1131AB080E090E0212F4E2D0E949B0C65E06F0D7D
S1131AC0412F8FE690E00E94700C688546E04F0D30
S1131AD070E080E090E0212F0E949B0C27960FB6C7
S1131AE0F894DEBF0FBECDBFDF91CF911F910F9150
S1131AF0FF90EF90DF9008950F931F93CF93DF93A0
S1131B00CDB7DEB727970FB6F894DEBF0FBECDBFB3
S1131B1081E08ABB00E010E020E030E040E050E0EB
S1131B2060E870E080E090E00E947E0120E031EE09
S1131B3040E050E068E070E080E090E00E945800EF
S1131B400E94DB016FEF80E090E00E940C0A0E948B
S1131B504504182F81E790E00E941F0160E070E0C7
S1131B60812F90E00E946E018EEC90E00E941F0194
S1131B701530A9F480E00E9454050E94190B60E01E
S1131B8080E00E940E0D2FEF30EE85EF95E021509E
S1131B90304080409040D9F700C00000F0CFCE0123
S1131BA001960E946502CE0101960E94D1028BE942
S1131BB090E00E941F018DEA90E00E941F018D8138
S1131BC060E070E090E00E946E0186EB90E00E947D
S1131BD01F018F8160E070E090E00E946E018FE64B
S1131BE090E00E941F018E8160E070E090E00E940E
S1131BF06E018FE690E00E941F01888560E070E02E
S1131C0090E00E946E0180EC90E00E941F018B81A5
S1131C1060E070E090E00E946E018DE690E00E942A
S1131C201F018A8160E070E090E00E946E018DE601
S1131C3090E00E941F01898160E070E090E00E94C2
S1131C406E018AEC90E00E941F0180E090E02796EC
S1131C500FB6F894DEBF0FBECDBFDF91CF911F91B9
S1131C600F910895A1E21A2EAA1BBB1BFD010DC002
S1131C70AA1FBB1FEE1FFF1FA217B307E407F50738
S1131C8020F0A21BB30BE40BF50B661F771F881F14
S1131C90991F1A9469F760957095809590959B01AA
S1131CA0AC01BD01CF0108950E945F0EA59F900D68
S1131CB0B49F900DA49F800D911D11240895A29F9F
S1131CC0B001B39FC001A39F700D811D1124911D0C
S1131CD0B29F700D811D1124911D0895DC0101C076
S1131CE06D9341505040E0F70895BB274A3031F4DA
S1131CF0992322F4BDE2909581959F4F0C94BD0EDB
S1131D002532310520F4223010F00C948B0EFA01A8
S1131D101082CA010895BB272A3051F4992342F452
S1131D20BDE290958095709561957F4F8F4F9F4F41
S1131D300C949B0EBB27FA01A62F6217710581052F
S1131D409105330B30FB66F0AA27660F771F881FB7
S1131D50991FAA1FA21710F0A21B63953850A9F768
S1131D60A05DAA3308F0A95DA19336F7B111B19330
S1131D701082CA010C94D60EBB27FB015527AA2753
S1131D80880F991FAA1FA41710F0A41B8395505104
S1131D90B9F7A05DAA3308F0A95DA193009779F77C
S1131DA0B111B1931192CB010C94D60EDC01FC015C
S1131DB0672F71917723E1F7329704C07C916D937B
S1131DC070836291AE17BF07C8F30895F894FFCFEC
S1131DD0307800300031333036434852003A002F17
S1131DE0000D0A48656C6C6F20566F69642E20499B
S1131DF020686176652061776F6B656E0D0A2052ED
S1131E006573706F6E7365207C20000D0A20436F2C
S1131E106D706C657465642041743A20000D0A206D
S1131E20446179203D000D0A2044617465203D0021
S1131E300D0A2054696D65203D000D0A0D0A0D0A36
S1051E4000009C
S9030000FC
