S01600004C43445F313658325F436C6F636B2E73726563A0
S11300000C942A000C9447000C9447000C9475013E
S11300100C9447000C9447000C9447000C94470040
S11300200C9447000C9447000C9447000C94470030
S11300300C9447000C9447000C9447000C94470020
S11300400C9447000C9447000C9447000C94470010
S11300500C94470011241FBECFE5D4E0DEBFCDBF12
S113006010E0A0E6B0E0E0ECF9E002C005900D92EB
S1130070AE39B107D9F722E0AEE9B0E001C01D9274
S1130080AE3BB207E1F70E94ED030C94DE040C943E
S1130090000088B3826088BB85E88A95F1F7000088
S11300A088B38D7F88BB85E88A95F1F700000895B1
S11300B0CF93C82F8091B8029091B902089731F478
S11300C0C8BB88B38E7F88BB0E9449008091B80268
S11300D09091B902049791F588B38F709C2F907F0B
S11300E0892B88BB88B38E7F88BB88B3826088BB2A
S11300F036E03A95F1F700C088B38D7F88BB83EF73
S113010091E00197F1F700C0000028B330E1C39FEC
S1130110C0011124922F9F70892B88BB88B3826001
S113012088BB86E08A95F1F700C088B38D7F88BBD1
S11301308FE097E20197F1F700C0000018BACF9161
S11301400895CF93C82F8091B8029091B90208976F
S113015039F4C8BB88B3816088BB0E94490018BACF
S11301608091B8029091B902049791F588B38F7089
S11301709C2F907F892B88BB88B3816088BB88B310
S1130180826088BB36E03A95F1F700C088B38D7F72
S113019088BB83EF91E00197F1F700C0000028B31A
S11301A030E1C39FC0011124922F9F70892B88BB1B
S11301B088B3826088BB86E08A95F1F700C088B373
S11301C08D7F88BB8FE097E20197F1F700C00000B4
S11301D018BACF91089590E09093B9028093B80231
S11301E00897D9F48CE00E9458002FE784E89EE138
S11301F0215080409040E1F700C0000088E30E9455
S113020058008EE00E94580086E00E94580081E069
S11302100E94580080E80E9458008091B802909192
S1130220B902049791F483E30E94580082E30E9488
S1130230580088E20E9458008EE00E94580080E135
S11302400E94580081E00E945800089581E00E94B5
S113025058000895009749F46031710534F4862FED
S11302608F7080680E9458000895019741F46031AE
S113027071052CF4862F8F70806C0E9458000895AD
S11302800F931F93CF93DF938C01C0E0D0E003C0A2
S11302900E94A1002196F801EC0FFD1F80818111BD
S11302A0F7CFDF91CF911F910F910895CF93DF93F3
S11302B0CDB7DEB7C456D1090FB6F894DEBF0FBE72
S11302C0CDBFAB01BE016F5F7F4F0E949E04CE0184
S11302D001960E944001CC59DF4F0FB6F894DEBF5F
S11302E00FBECDBFDF91CF9108951F920F920FB62D
S11302F00F9211248F9382B3805882BB8F910F90F9
S11303000FBE0F901F901895CF92DF92EF92FF923D
S1130310FC012093B2023093B3024093B402509391
S1130320B5029AB198699AB9E130F10561F0E23009
S1130330F10569F0EF2B71F480B58F7E80BD80B537
S11303408F7D80BD07C080B5806380BD03C080B54C
S1130350806280BD67307105E9F03CF46530710559
S113036059F06630710591F023C068307105B1F021
S113037069307105D1F01CC080B58D7F80BD80B51A
S11303808B7F80BD80B58B7F80BD12C080B58260BD
S113039080BD0EC080B5846080BD0AC080B5846015
S11303A080BD80B5826080BD03C080B5866080BD9D
S11303B00F2EF0EDCF2EF2E1DF2EF3E1EF2EF12C34
S11303C0F02D2091B2023091B3024091B4025091C9
S11303D0B502C701B6010E947C04215029B92091BD
S11303E0B2023091B3024091B4025091B502C701F8
S11303F0B6010E947C04DA01C9010197A109B1097F
S1130400892F9A2FAB2FBB2780BDFF90EF90DF90F1
S1130410CF9008958091B2029091B302A091B4025A
S1130420B091B50289329342A105B10534F487E84D
S113043093E10197F1F700C000008091B20290911E
S1130440B302A091B402B091B50289389341A105D9
S1130450B10534F487EC9FEA0197F1F700C000007E
S11304608091B2029091B302A091B402B091B5020E
S1130470813B9440A105B1054CF48FE39DE023E05A
S1130480815090402040E1F700C0000008955D9B3A
S1130490FECF8CB908950F931F93CF93DF938C01F4
S11304A0C0E0D0E005C00E9447020E940A022196E3
S11304B0F801EC0FFD1F80818111F5CFDF91CF9101
S11304C01F910F91089511B881E180B9089594EABC
S11304D096BF06B607FEFDCF91B1987F983071F4B0
S11304E083B984E886BF06B607FEFDCF81B1887F55
S11304F0883131F0803231F482E0089580E008954B
S113050081E0089583E0089594EA96BF06B607FE55
S1130510FDCF91B1987F903171F483B984E886BF9F
S113052006B607FEFDCF81B1887F803431F080327A
S113053031F482E0089580E0089581E0089583E035
S1130540089584E986BF06B604FCFDCF089583B9F7
S113055084E886BF06B607FEFDCF81B1887F883266
S113056021F0803321F481E0089580E0089582E051
S1130570089584EC86BF06B607FEFDCF83B10895C7
S113058084E886BF06B607FEFDCF83B108951F93A6
S1130590CF93DF93322F9DEC499F512D1124569513
S11305A05695569520E1529FF0011124550F252FA1
S11305B0220F220F520F451BD42FDE2B699F512D82
S11305C0112456955695569520E1529FF001112419
S11305D0550F252F220F220F520F651B162F1E2B8E
S11305E0899F912D112496959695969520E1929F39
S11305F0A0011124990F292F220F220F920F891B7A
S1130600842B90E2399F90011124282BC22FC064BF
S113061080ED0E94670280E00E94A7028D2F0E9455
S1130620A702812F0E94A7028C2F0E94A7020E947A
S1130630A102DF91CF911F910895CF93DF93EC0135
S113064080ED0E94670280E00E94A70281ED0E9473
S113065084020E94B9028093B6020E94B902809378
S1130660B7020E94C0028093BA020E94A102509174
S1130670BA02652F60724091B602242F207730E0D1
S1130680359527953595279535952795359527954E
S1130690842F8F70220F422F440F440F240F482FB2
S11306A0420F4093B6028091B702282F207730E0A2
S11306B0359527953595279535952795359527951E
S11306C0982F9F70220F822F880F880F280F290FD1
S11306D02093B702852F807190E095958795959525
S11306E0879595958795959587955F70880F982F31
S11306F0990F990F890F850F8093BA0248838091CF
S1130700B70289838091BA028A836B83DF91CF9188
S11307100895CF93DF93EC0180ED0E94670283E09C
S11307200E94A70281ED0E9484020E94B902809374
S1130730BC020E94B9028093BD020E94B902809358
S1130740B1020E94C0028093BB020E94A1023091B8
S1130750BD02832F807390E0959587959595879535
S11307609595879595958795932F9F70880F382F2A
S1130770330F330F830F392F380F3093BD0220917D
S1130780B102822F807190E0959587959595879514
S113079095958795959587952F70880F982F990F24
S11307A0990F890F820F8093B1022091BB02922F7F
S11307B092959F70422F4F70990F292F220F220F6D
S11307C0920F940F9093BB022091BC022C833D8323
S11307D08E839F83DF91CF910895CF93DF93CDB71D
S11307E0DEB728970FB6F894DEBF0FBECDBF8FEFEC
S11307F087BB20E031EE40E050E068E070E080E04C
S113080090E00E9484010E94630284E00E94EB0055
S113081085E690E00E944B0221E04EE162E384E031
S11308200E94C702CE0101960E941D03CE010196CB
S11308300E9489032FEF88E09DE32150804090407F
S1130840E1F700C000000E94260160E070E080E053
S113085090E00E942A018B816AE070E090E00E949F
S113086056018FE890E00E9440018A816AE070E0BE
S113087090E00E9456018FE890E00E944001898137
S11308806AE070E090E00E9456018C81811105C0FD
S113089081E990E00E94400104C085E990E00E9453
S11308A0400160E070E081E090E00E942A018D81C7
S11308B06AE070E090E00E94560189E990E00E94AD
S11308C040018F816AE070E090E00E9456018CE95B
S11308D090E00E9440018E816AE070E090E00E9406
S11308E056018CE990E00E94400188856AE070E03E
S11308F090E00E94560196CFA1E21A2EAA1BBB1BC0
S1130900FD010DC0AA1FBB1FEE1FFF1FA217B307D7
S1130910E407F50720F0A21BB30BE40BF50B661FED
S1130920771F881F991F1A9469F7609570958095B1
S113093090959B01AC01BD01CF010895453251054D
S113094020F4423010F00C94A904FB011082CB0176
S11309500895BB274A3031F4992322F4BDE29095DF
S113096081959F4F0C94B504BB27FB015527AA27FB
S1130970880F991FAA1FA41710F0A41B8395505128
S1130980B9F7A05DAA3308F0A95DA193009779F7A0
S1130990B111B1931192CB010C94CE04DC01FC0192
S11309A0672F71917723E1F7329704C07C916D939F
S11309B070836291AE17BF07C8F30895F894FFCF10
S11309C030780030000D0A48656C6C6F20566F69F2
S11309D0642E204920686176652061776F6B656EAF
S11309E00D0A20526573706F6E7365207C20003A87
S11109F00020414D0020504D002020002F001B
S9030000FC
