:100000000C942A000C9447000C9447000C94470071
:100010000C9447000C9447000C9447000C94470044
:100020000C9447000C9447000C9447000C94E50195
:100030000C9447000C9447000C9447000C94470024
:100040000C9447000C9447000C9447000C94470014
:100050000C94470011241FBECFE5D4E0DEBFCDBF16
:1000600010E0A0E6B0E0E8E2FEE002C005900D92EC
:10007000A23FB107D9F724E0A2EFB0E001C01D9282
:10008000AC31B207E1F70E944E060C9412070C94B3
:100090000000CF92DF92EF92FF92FC012093F200DA
:1000A0003093F3004093F4005093F5009AB19869AF
:1000B0009AB9E130F10561F0E230F10569F0EF2B1A
:1000C00071F480B58F7E80BD80B58F7D80BD07C007
:1000D00080B5806380BD03C080B5806280BD67301D
:1000E0007105E9F03CF46530710559F06630710531
:1000F00091F023C068307105B1F069307105D1F01D
:100100001CC080B58D7F80BD80B58B7F80BD80B5E4
:100110008B7F80BD12C080B5826080BD0EC080B56F
:10012000846080BD0AC080B5846080BD80B5826077
:1001300080BD03C080B5866080BD0F2EF0EDCF2E50
:10014000F2E1DF2EF3E1EF2EF12CF02D2091F20001
:100150003091F3004091F4005091F500C701B601D1
:100160000E948A06215029B92091F2003091F300B3
:100170004091F4005091F500C701B6010E948A0633
:10018000DA01C9010197A109B109892F9A2FAB2F73
:10019000BB2780BDFF90EF90DF90CF9008958091B6
:1001A000F2009091F300A091F400B091F500893233
:1001B0009342A105B10534F487E893E10197F1F783
:1001C00000C000008091F2009091F300A091F40033
:1001D000B091F50089389341A105B10534F487EC5D
:1001E0009FEA0197F1F700C000008091F200909122
:1001F000F300A091F400B091F500813B9440A1057B
:10020000B1054CF48FE39DE023E081509040204005
:10021000E1F700C0000008955D9BFECF8CB9089502
:100220000F931F93CF93DF938C01C0E0D0E005C004
:100230000E940C010E94CF002196F801EC0FFD1FD7
:1002400080818111F5CFDF91CF911F910F9108959A
:10025000EF92FF920F931F93CF93DF938C017B015B
:10026000C0E0D0E009C0F801EC0FFD1F80810E94C2
:100270000C010E94CF002196F80101900020E9F7BF
:100280003197E01BF10BCE17DF0768F3EA94EF28F4
:1002900079F480E20E940C010E94CF008CE70E945A
:1002A0000C010E94CF0085E40E940C010E94CF0047
:1002B000DF91CF911F910F91FF90EF900895CF9311
:1002C000DF93EB014AE06CE771E00E94AC06BE01EF
:1002D0008CE791E00E942801DF91CF9108950F9360
:1002E0001F93CF93DF93EC018B0140E16CE771E04A
:1002F0000E94AC06609734F460E070E083E690E022
:100300000E942801B8018CE791E00E942801DF914A
:10031000CF911F910F910895CF93DF93EA012AE0C7
:100320004CE751E00E94B706BE018CE791E00E94C5
:100330002801DF91CF910895CF93DF93EA0120E167
:100340004CE751E00E94B706BE018CE791E00E94A5
:100350002801DF91CF910895409190015091910132
:10036000FA01E550FF4F80818C3771F5FA01E450B6
:10037000FF4F8081853441F580E8E1E9F3E0DF015A
:100380001D928A95E9F781E090E009C0FC01E450F4
:10039000FF4F2081FC01E057FC4F208301969A011A
:1003A00023503109281739078CF792B388E0892741
:1003B00082BB109291011092900180E8ECEFF0E086
:1003C000DF011D928A95E9F708951F920F920FB6EB
:1003D0000F9211242F933F934F935F936F937F93CB
:1003E0008F939F93AF93BF93EF93FF93809190016F
:1003F00090919101019690939101809390012CB17D
:10040000FC01E450FF4F20830E94AC0180919001D9
:10041000909191018038910524F0109291011092F1
:100420009001FF91EF91BF91AF919F918F917F913B
:100430006F915F914F913F912F910F900FBE0F9051
:100440001F9018950F93E7B3EF7BE7BBE7B3E0622C
:10045000E7BBE7B3E061E7BBE7B3E068E7BB0EB932
:100460001DB8EDB1880F991F82959295907F9827BE
:10047000807F98278E2B8DB98DB1440F551F440F67
:10048000551F440F551F220F331F220F331F406C7F
:10049000242B282B20612DB96031710599F024F4AB
:1004A0006430710541F022C06034710591F060380C
:1004B0007105B1F01BC08DB18D7F8DB98DB18E7F6F
:1004C0008DB914C08DB18D7F8DB98DB181608DB91D
:1004D0000DC08DB182608DB98DB18E7F8DB906C092
:1004E0008DB182608DB98DB181608DB90F91089504
:1004F000E7E8F3E13197F1F700C000008FB9779B8F
:10050000FECF8FB108958FB9779BFECF8FB108953D
:10051000FF920F931F93CF93DF93D42F152F062FA6
:10052000F72EC22F80640E9478028F2D0E947802DD
:10053000802F0E947802812F0E9478028D2F0E94C6
:1005400078028C2F81600E947802DF91CF911F91F9
:100550000F91FF900895CF938BB381608BBB87E899
:1005600093E10197F1F700C00000C0E007C08BB332
:100570008E7F8BBB8FEF0E947802CF5FC035B8F3C0
:100580008BB381608BBB8FEF0E947802CF9108956F
:100590001ABA1BBA2FE78AE196E0215080409040BA
:1005A000E1F700C0000082E08ABB8BBB0895CF93C7
:1005B000C0E003C0CF5FC93030F48FEF0E948302E8
:1005C0008F3FC1F301C080E8CF910895CF938FEFA3
:1005D0000E9483028BB38E7F8BBB8FEF0E948302BE
:1005E00024E940E050E0BA0180E00E9488020E94C5
:1005F000D702C82F8FEF0E9483028BB381608BBB21
:100600008FEF0E9483028C2FCF910895CF93DF93B9
:10061000EC010E94D7028883823080F48FEF0E9421
:10062000830289838FEF0E9483028A838FEF0E9467
:1006300083028B838FEF0E9483028C83DF91CF91A3
:100640000895CF93DF93EC018FEF0E9483028BB369
:100650008E7F8BBB8FEF0E94830226E84AEA51E02F
:1006600060E070E088E00E948802CE010E940603EC
:100670008FEF0E9483028BB381608BBB8FEF0E9450
:100680008302DF91CF910895CF93DF93EC018FEF39
:100690000E9483028BB38E7F8BBB8FEF0E948302FD
:1006A00020E040E050E0BA018AE30E948802CE01D7
:1006B0000E9406038FEF0E9483028BB381608BBB85
:1006C0008FEF0E948302DF91CF910895CF938FEF38
:1006D0000E9483028BB38E7F8BBB8FEF0E948302BD
:1006E00020E040E050E0BA0187E30E9488020E94C7
:1006F000D702C82F8FEF0E9483028BB381608BBB20
:100700008FEF0E9483028C2FCF910895CF938FEFAC
:100710000E9483028BB38E7F8BBB8FEF0E9483027C
:1007200020E040E050E060E070E489E20E9488024E
:100730000E94D702C82F8FEF0E9483028BB3816083
:100740008BBB8FEF0E9483028C2FCF9108950F9364
:100750001F93CF93DF9300D000D01F92CDB7DEB7A9
:100760000E94AB0200E003C00F5F0B3070F50E94E7
:10077000E602182F89838130B9F7CE0101960E94D5
:1007800021038981813041F58D818A3A01F510E09C
:100790001536F8F40E9466038983823018F40E94AB
:1007A000860389838FE493EC0197F1F700C0000082
:1007B0001F5F89818111ECCFCE0101960E94440315
:1007C0008A81882344F014E007C010E005C012E0DD
:1007D00003C013E001C015E0812F0F900F900F9020
:1007E0000F900F90DF91CF911F910F9108954F922D
:1007F0005F926F927F92AF92BF92CF92DF92FF9201
:100800000F931F93CF93DF936C012A013B01590192
:100810008FEFF90180830E9483028BB38E7F8BBBA5
:100820008FEF0E94830220E0B301A20181E10E94C8
:1008300088020E94D7028F3F49F42BC08FEF0E949D
:100840008302F82EFEEF8F1303C007C0C0E0D0E094
:100850002196C43284EFD80789F7EEEFFE1217C055
:100860000AC086010C0F1D1F8FEF0E948302F80142
:100870008083219602C0C0E0D0E0C115F2E0DF071E
:1008800080F38FEF0E9483028FEF0E948302F501B5
:10089000F082DF91CF911F910F91FF90DF90CF9069
:1008A000BF90AF907F906F905F904F9008952BE135
:1008B00034E040E050E0BA0182E991E00E94F703A1
:1008C00080919003853509F046C0809191038A3A62
:1008D00009F043C085E690E00E941001E2E9F1E0F2
:1008E000278530E0322F22278685280F311D30934F
:1008F0001A042093190486A190E0A0E0B0E0DC0186
:100900009927882745A150E0542F4427840F951F2D
:10091000A11DB11D44A1840F911DA11DB11D6089B0
:1009200070E0689FA001699F500D789F500D1124C1
:100930005093FB004093FA00C901840F951FA0E07B
:10094000B0E08093110490931204A0931304B09329
:10095000140481E0089580E0089580E00895CF9226
:10096000DF92EF92FF920F931F93CF93DF93EC01EF
:100970008091110490911204A0911304B091140479
:100980008093150490931604A0931704B093180451
:10099000E12CF12C01E010E0C12CD12C5EC0809143
:1009A000110490911204A0911304B0911404A701B2
:1009B0000F2C000C660B770B480F591F6A1F7B1F0B
:1009C0002BE134E082E991E00E94F70320E030E07F
:1009D0003AC0F901EE56FE4F9081888198132EC0DF
:1009E00010C0F901E80FF91FEE56FE4F5081FE01CD
:1009F000E80FF91F4081541711F000E010E0019654
:100A000004C080E090E001E010E0FE0101900020D1
:100A1000E9F73197EC1BFD0B8E179F0710F30115BB
:100A2000110549F0D22ECE2C8EE690E00E941001E6
:100A300002E010E00CC00230110549F0023011054F
:100A400031F02F5F3F4F211582E0380714F202305A
:100A5000110541F08FEFE81AF80A8FEFE816F80653
:100A600009F09DCF012B09F44FC040911104509122
:100A7000120460911304709114044C0D511D611DFA
:100A8000711D2BE134E082E991E00E94F703ED2D26
:100A9000F0E0DF01A955BE4F4C9150E060E070E0FE
:100AA0009A0111270027DF01AA55BE4F8C9190E0D3
:100AB000982F88279295907F092E000CAA0BBB0BCC
:100AC000AC01BD01400F511F621F731FDF01A35511
:100AD000BE4F8C9190E0982F8827092E000CAA0B0E
:100AE000BB0B840F951FA61FB71FE455FE4F208137
:100AF000820F911DA11DB11D8093F6009093F70008
:100B0000A093F800B093F900DF91CF911F910F915E
:100B1000FF90EF90DF90CF900895CF92DF92EF9209
:100B2000FF920F931F93CF93DF930E94AF044091E6
:100B3000190450911A0460E070E02BE134E082E97E
:100B400091E00E94F70388E790E00E9410018CE991
:100B500090E00E941001C091F600D091F700CC0FF8
:100B6000DD1FCC0FDD1F0AC0FE01EE56FE4F808157
:100B700060E070E090E00E946F0121960091F60025
:100B80001091F7002091F8003091F900D901C801C7
:100B90000196A11DB11D880F991FAA1FBB1F880FA9
:100BA000991FAA1FBB1FAE010D2E000C660B770B01
:100BB000481759076A077B07B8F2000F111F221F59
:100BC000331F000F111F221F331FF801EE56FE4F77
:100BD000C080D901C8010196A11DB11DFC01EE56CE
:100BE000FE4F8081D12CE12CF12CFE2CED2CDC2C45
:100BF000CC24C80ED11CE11CF11CD60199278827F2
:100C0000B901A8014E5F5F4F6F4F7F4FFA01EE565B
:100C1000FE4FC080D12CDC2CCC240D2C000CEE0817
:100C2000FF08C80ED91EEA1EFB1E0D5F1F4F2F4F77
:100C30003F4FF801EE56FE4F8081C80ED11CE11CDB
:100C4000F11C689415F8F694E794D794C794169419
:100C5000D1F780EA90E00E94100140E050E0C70127
:100C6000B6010E949C0187EB90E00E941001C70131
:100C7000B601625071098109910940E050E00E947B
:100C80008C018CE990E00E941001DF91CF911F91BF
:100C90000F91FF90EF90DF90CF9008950F931F93E7
:100CA000CF9320E835E240E050E068E070E080E07B
:100CB00090E00E94490000E010E020E030E040E0D9
:100CC00050E060E870E080E090E00E9422020E9424
:100CD000A703C82F81EC90E00E94100160E070E053
:100CE0008C2F90E00E945F01C53011F00E94C80275
:100CF000C53051F40E9457048DE990E00E94100124
:100D00008BEE90E00E948D0580E090E0CF911F91E6
:100D10000F910895A1E21A2EAA1BBB1BFD010DC065
:100D2000AA1FBB1FEE1FFF1FA217B307E407F5079B
:100D300020F0A21BB30BE40BF50B661F771F881F77
:100D4000991F1A9469F760957095809590959B010D
:100D5000AC01BD01CF010895BB274A3031F499237E
:100D600022F4BDE2909581959F4F0C94E906BB2734
:100D70002A3051F4992342F4BDE290958095709504
:100D800061957F4F8F4F9F4F0C94C706BB27FA0189
:100D9000A62F6217710581059105330B30FB66F0B4
:100DA000AA27660F771F881F991FAA1FA21710F086
:100DB000A21B63953850A9F7A05DAA3308F0A95D7E
:100DC000A19336F7B111B1931082CA010C940207B6
:100DD000BB27FB015527AA27880F991FAA1FA41715
:100DE00010F0A41B83955051B9F7A05DAA3308F009
:100DF000A95DA193009779F7B111B1931192CB013D
:100E00000C940207DC01FC01672F71917723E1F755
:100E1000329704C07C916D9370836291AE17BF07C7
:080E2000C8F30895F894FFCF18
:100E280030780030000D0A2056616C6964000D0AA4
:100E3800466F756E640D0A000D0A204E65787420A1
:100E4800436C737420696E205072696D61727920E9
:100E580046415420536563746F725B005D0D0A0050
:100E68000D0A0D0A0D0A205365636F6E6420436CEA
:100E780075737465725B005D20536563746F725B94
:100E8800000D0A48656C6C6F20566F69642E204906
:100E980020686176652061776F6B656E0D0A205258
:100EA8006573706F6E7365207C200048454C4C4F0D
:020EB800000038
:00000001FF
