:100000000C942A000C9447000C9447000C94470071
:100010000C9447000C9447000C9447000C94470044
:100020000C9447000C9447000C9447000C94D501A5
:100030000C9447000C9447000C9447000C94470024
:100040000C9447000C9447000C9447000C94470014
:100050000C94470011241FBECFE5D4E0DEBFCDBF16
:1000600010E0A0E6B0E0E2E2FEE002C005900D92F2
:10007000A23CB107D9F723E0A2ECB0E001C01D9289
:10008000A43EB207E1F70E9435060C940F070C94CA
:100090000000CF92DF92EF92FF92FC012093C2000A
:1000A0003093C3004093C4005093C5009AB198693F
:1000B0009AB9E130F10561F0E230F10569F0EF2B1A
:1000C00071F480B58F7E80BD80B58F7D80BD07C007
:1000D00080B5806380BD03C080B5806280BD67301D
:1000E0007105E9F03CF46530710559F06630710531
:1000F00091F023C068307105B1F069307105D1F01D
:100100001CC080B58D7F80BD80B58B7F80BD80B5E4
:100110008B7F80BD12C080B5826080BD0EC080B56F
:10012000846080BD0AC080B5846080BD80B5826077
:1001300080BD03C080B5866080BD0F2EF0EDCF2E50
:10014000F2E1DF2EF3E1EF2EF12CF02D2091C20031
:100150003091C3004091C4005091C500C701B60161
:100160000E946D06215029B92091C2003091C30030
:100170004091C4005091C500C701B6010E946D06B0
:10018000DA01C9010197A109B109892F9A2FAB2F73
:10019000BB2780BDFF90EF90DF90CF9008958091B6
:1001A000C2009091C300A091C400B091C5008932F3
:1001B0009342A105B10534F487E893E10197F1F783
:1001C00000C000008091C2009091C300A091C400C3
:1001D000B091C50089389341A105B10534F487EC8D
:1001E0009FEA0197F1F700C000008091C200909152
:1001F000C300A091C400B091C500813B9440A1050B
:10020000B1054CF48FE39DE023E081509040204005
:10021000E1F700C0000008955D9BFECF8CB9089502
:100220000F931F93CF93DF938C01C0E0D0E005C004
:100230000E940C010E94CF002196F801EC0FFD1FD7
:1002400080818111F5CFDF91CF911F910F9108959A
:10025000EF92FF920F931F93CF93DF938C017B015B
:10026000C0E0D0E009C0F801EC0FFD1F80810E94C2
:100270000C010E94CF002196F80101900020E9F7BF
:100280003197E01BF10BCE17DF0768F3EA94EF28F4
:1002900079F480E20E940C010E94CF008CE70E945A
:1002A0000C010E94CF0085E40E940C010E94CF0047
:1002B000DF91CF911F910F91FF90EF900895CF9311
:1002C000DF93EB014AE066E471E00E94A906BE01FB
:1002D00086E491E00E942801DF91CF9108950F9369
:1002E0001F93CF93DF93EC018B0140E166E471E053
:1002F0000E94A906609734F460E070E083E690E025
:100300000E942801B80186E491E00E942801DF9153
:10031000CF911F910F910895CF93DF93EA012AE0C7
:1003200046E451E00E94B406BE0186E491E00E94DA
:100330002801DF91CF91089540915A0150915B01BE
:10034000FA01EB53FF4F80818C3771F5FA01EA53C4
:10035000FF4F8081853441F580E8EBE5F3E0DF0174
:100360001D928A95E9F781E090E009C0FC01EA530B
:10037000FF4F2081FC01E65AFC4F208301969A0131
:1003800023503109281739078CF792B388E0892761
:1003900082BB10925B0110925A0180E8E6ECF0E01B
:1003A000DF011D928A95E9F708951F920F920FB60B
:1003B0000F9211242F933F934F935F936F937F93EB
:1003C0008F939F93AF93BF93EF93FF9380915A01C5
:1003D00090915B01019690935B0180935A012CB13F
:1003E000FC01EA53FF4F20830E949C0180915A0137
:1003F00090915B018038910524F010925B0110927E
:100400005A01FF91EF91BF91AF919F918F917F9191
:100410006F915F914F913F912F910F900FBE0F9071
:100420001F9018950F93E7B3EF7BE7BBE7B3E0624C
:10043000E7BBE7B3E061E7BBE7B3E068E7BB0EB952
:100440001DB8EDB1880F991F82959295907F9827DE
:10045000807F98278E2B8DB98DB1440F551F440F87
:10046000551F440F551F220F331F220F331F406C9F
:10047000242B282B20612DB96031710599F024F4CB
:100480006430710541F022C06034710591F060382C
:100490007105B1F01BC08DB18D7F8DB98DB18E7F8F
:1004A0008DB914C08DB18D7F8DB98DB181608DB93D
:1004B0000DC08DB182608DB98DB18E7F8DB906C0B2
:1004C0008DB182608DB98DB181608DB90F91089524
:1004D000E7E8F3E13197F1F700C000008FB9779BAF
:1004E000FECF8FB108958FB9779BFECF8FB108955E
:1004F000FF920F931F93CF93DF93D42F152F062FC7
:10050000F72EC22F80640E9468028F2D0E9468021D
:10051000802F0E946802812F0E9468028D2F0E9406
:1005200068028C2F81600E946802DF91CF911F9139
:100530000F91FF900895CF938BB381608BBB87E8B9
:1005400093E10197F1F700C00000C0E007C08BB352
:100550008E7F8BBB8FEF0E946802CF5FCA30B8F3EB
:100560008BB381608BBB8FEF0E946802CF9108959F
:10057000CF93C0E003C0CF5FC93030F48FEF0E944B
:1005800073028F3FC1F301C080E8CF910895CF93EC
:100590008FEF0E9473028BB38E7F8BBB8FEF0E9415
:1005A000730224E940E050E0BA0180E00E94780242
:1005B0000E94B802C82F8FEF0E9473028BB3816034
:1005C0008BBB8FEF0E9473028C2FCF910895CF9336
:1005D000DF93EC010E94B8028883823080F48FEFB1
:1005E0000E94730289838FEF0E9473028A838FEFC8
:1005F0000E9473028B838FEF0E9473028C83DF91C2
:10060000CF910895CF93DF93EC018FEF0E94730297
:100610008BB38E7F8BBB8FEF0E94730226E84AEA72
:1006200051E060E070E088E00E947802CE010E9414
:10063000E7028FEF0E9473028BB381608BBB8FEF59
:100640000E947302DF91CF910895CF93DF93EC0165
:100650008FEF0E9473028BB38E7F8BBB8FEF0E9454
:10066000730220E040E050E0BA018AE30E94780281
:10067000CE010E94E7028FEF0E9473028BB381606C
:100680008BBB8FEF0E947302DF91CF910895CF93C0
:100690008FEF0E9473028BB38E7F8BBB8FEF0E9414
:1006A000730220E040E050E0BA0187E30E94780244
:1006B0000E94B802C82F8FEF0E9473028BB3816033
:1006C0008BBB8FEF0E9473028C2FCF910895CF9335
:1006D0008FEF0E9473028BB38E7F8BBB8FEF0E94D4
:1006E000730220E040E050E060E070E489E20E94A4
:1006F00078020E94B802C82F8FEF0E9473028BB35A
:1007000081608BBB8FEF0E9473028C2FCF91089575
:100710000F931F93CF93DF9300D000D01F92CDB7DC
:10072000DEB70E949B0200E003C00F5F0B3070F544
:100730000E94C702182F89838130B9F7CE01019634
:100740000E9402038981813041F58D818A3A01F549
:1007500010E01536F8F40E9447038983823018F4BC
:100760000E94670389838FE493EC0197F1F700C03F
:1007700000001F5F89818111ECCFCE0101960E949C
:1007800025038A81882344F014E007C010E005C0E7
:1007900012E003C013E001C015E0812F0F900F900D
:1007A0000F900F900F90DF91CF911F910F910895AF
:1007B0004F925F926F927F92AF92BF92CF92DF92F1
:1007C000FF920F931F93CF93DF936C012A013B019C
:1007D00059018FEFF90180830E9473028BB38E7FE2
:1007E0008BBB8FEF0E94730220E0B301A20181E175
:1007F0000E9478020E94B8028F3F49F42BC08FEF0D
:100800000E947302F82EFEEF8F1303C007C0C0E0F2
:10081000D0E02196C43284EFD80789F7EEEFFE12BC
:1008200017C00AC086010C0F1D1F8FEF0E947302B4
:10083000F8018083219602C0C0E0D0E0C115F2E04B
:10084000DF0780F38FEF0E9473028FEF0E94730225
:10085000F501F082DF91CF911F910F91FF90DF9012
:10086000CF90BF90AF907F906F905F904F90089522
:100870000F931F9323EE33E040E050E0BA018CE584
:1008800091E00E94D80380915A03853509F04AC04F
:1008900080915B038A3A09F045C085E690E00E94AA
:1008A0001001ACE5B1E01F96EC911F97F0E0FE2F30
:1008B000EE271E968C911E97E80FF11D96962C91AF
:1008C0009697422F50E060E070E0BA015527442728
:1008D00095968C91959790E0982F8827480F591FEF
:1008E000611D711D94968C9194979A01AB01280F0C
:1008F000311D411D511D5096AC91B0E00E948F06F4
:100900008F01FF0F220B330BDC01CB01800F911FF6
:10091000A21FB31F8093DB039093DC03A093DD033E
:10092000B093DE0380E01F910F910895AF92BF92C4
:10093000CF92DF92EF92FF920F931F93CF93DF93AB
:10094000EC018091DB039091DC03A091DD03B09179
:10095000DE038093DF039093E003A093E103B09361
:10096000E203E12CF12C01E010E0C12CD12C5EC09F
:100970008091DB039091DC03A091DD03B091DE0355
:10098000A7010F2C000C660B770B480F591F6A1F2D
:100990007B1F23EE33E08CE591E00E94D80320E03A
:1009A00030E03AC0F901E45AFE4F908188819813F3
:1009B0002EC010C0F901E80FF91FE45AFE4F508114
:1009C000FE01E80FF91F4081541711F000E010E01C
:1009D000019604C080E090E001E010E0FE0101908B
:1009E0000020E9F73197EC1BFD0B8E179F0710F3E2
:1009F0000115110549F0D22ECE2C8EE690E00E9412
:100A0000100102E010E00CC00230110549F0023084
:100A1000110531F02F5F3F4F211582E0380714F2A6
:100A20000230110541F09FEFE91AF90AEFEFEE16D7
:100A3000FE0609F09DCF012B09F40CC14091DB03A8
:100A40005091DC036091DD037091DE034C0D511D6C
:100A5000611D711D23EE33E08CE591E00E94D80307
:100A6000CD2DD0E0CE018F589E4F6C01FC018081CE
:100A700060E070E090E00E946F01CE0180599E4FCF
:100A80005C01FC01808160E070E090E00E946F01F9
:100A9000CE0189589E4F7C01FC01808160E070E0AE
:100AA00090E00E946F018E010A581E4FF80180816C
:100AB00060E070E090E00E946F01F601808190E0BC
:100AC000A0E0B0E0BC0155274427F501808190E00B
:100AD000982F88279295907F092E000CAA0BBB0BAC
:100AE000840F951FA61FB71FF701C080D12CDC2CE7
:100AF000CC240D2C000CEE08FF08C80ED91EEA1EEF
:100B0000FB1EF8018081C80ED11CE11CF11C85E799
:100B100090E00E94100188E790E00E94100140E000
:100B200050E0C701B6010E948C0185E790E00E9469
:100B300010018E011AC084E890E00E94100160E06C
:100B400070E0C8018C1B9D0B0E945F018EE890E055
:100B50000E941001F801E45AFE4F808160E070E0CD
:100B600090E00E946F010F5F1F4FCE018096081723
:100B700019070CF3F2E0CF1AD108E108F0EEFF0AF2
:100B8000CC0CDD1CEE1CFF1CCC0CDD1CEE1CFF1C79
:100B9000CC0CDD1CEE1CFF1C4091DB035091DC03F0
:100BA0006091DD037091DE034C0D5D1D6E1D7F1D98
:100BB00023EE33E08CE591E00E94D80385E790E0D6
:100BC0000E94100185E790E00E941001C0E0D0E093
:100BD0000AC0FE01E45AFE4F808160E070E090E0C0
:100BE0000E946F012196C11582E0D80794F380918D
:100BF0005B038F3F79F14091DB035091DC036091FF
:100C0000DD037091DE034C0D5D1D6E1D7F1D4F5F7A
:100C10005F4F6F4F7F4F23EE33E08CE591E00E94F2
:100C2000D80385E790E00E94100185E790E00E94DC
:100C30001001C0E0D0E00AC0FE01E45AFE4F8081FE
:100C400060E070E090E00E946F012196C11592E093
:100C5000D90794F3DF91CF911F910F91FF90EF90FF
:100C6000DF90CF90BF90AF9008950F931F93CF93D5
:100C700020E835E240E050E068E070E080E090E09D
:100C80000E94490000E010E020E030E040E050E049
:100C900060E870E080E090E00E9412020E94880309
:100CA000C82F82E990E00E94100160E070E08C2F74
:100CB00090E00E945F01C53051F40E94380485E73E
:100CC00090E00E9410018CEB90E00E94960480E07E
:100CD00090E0CF911F910F910895A1E21A2EAA1BC7
:100CE000BB1BFD010DC0AA1FBB1FEE1FFF1FA217DC
:100CF000B307E407F50720F0A21BB30BE40BF50BD9
:100D0000661F771F881F991F1A9469F76095709561
:100D1000809590959B01AC01BD01CF0108950E9483
:100D20009A06A59F900DB49F900DA49F800D911DD4
:100D300011240895A29FB001B39FC001A39F700D1D
:100D4000811D1124911DB29F700D811D1124911DD3
:100D50000895BB274A3031F4992322F4BDE29095DF
:100D600081959F4F0C94E606BB272A3051F49923B6
:100D700042F4BDE290958095709561957F4F8F4FBD
:100D80009F4F0C94C406BB27FA01A62F621771056A
:100D900081059105330B30FB66F0AA27660F771F9C
:100DA000881F991FAA1FA21710F0A21B6395385025
:100DB000A9F7A05DAA3308F0A95DA19336F7B11198
:100DC000B1931082CA010C94FF06BB27FB01552783
:100DD000AA27880F991FAA1FA41710F0A41B839598
:100DE0005051B9F7A05DAA3308F0A95DA19300970F
:100DF00079F7B111B1931192CB010C94FF06DC018C
:100E0000FC01672F71917723E1F7329704C07C9141
:100E10006D9370836291AE17BF07C8F30895F8947D
:020E2000FFCF02
:100E220030780030000D0A2056616C6964000D0AAA
:100E3200466F756E640D0A00436C75737441646489
:100E420072203D000D0A496E646578203D003D7CAC
:100E520020000D0A48656C6C6F20566F69642E2065
:100E62004920686176652061776F6B656E0D0A2097
:100E7200526573706F6E7365207C200048454C4C40
:020E82004F001F
:00000001FF
