:100000000C942A000C9447000C9447000C94470071
:100010000C9447000C9447000C9447000C94470044
:100020000C9447000C9447000C9447000C94C501B5
:100030000C9447000C9447000C9447000C94470024
:100040000C9447000C9447000C9447000C94470014
:100050000C94470011241FBECFE5D4E0DEBFCDBF16
:1000600010E0A0E6B0E0E6E1FCE002C005900D92F1
:10007000AA3AB107D9F723E0AAEAB0E001C01D927D
:10008000A83CB207E1F70E9454050C9409060C94B1
:100090000000CF92DF92EF92FF92FC012093AA0022
:1000A0003093AB004093AC005093AD009AB1986987
:1000B0009AB9E130F10561F0E230F10569F0EF2B1A
:1000C00071F480B58F7E80BD80B58F7D80BD07C007
:1000D00080B5806380BD03C080B5806280BD67301D
:1000E0007105E9F03CF46530710559F06630710531
:1000F00091F023C068307105B1F069307105D1F01D
:100100001CC080B58D7F80BD80B58B7F80BD80B5E4
:100110008B7F80BD12C080B5826080BD0EC080B56F
:10012000846080BD0AC080B5846080BD80B5826077
:1001300080BD03C080B5866080BD0F2EF0EDCF2E50
:10014000F2E1DF2EF3E1EF2EF12CF02D2091AA0049
:100150003091AB004091AC005091AD00C701B601A9
:100160000E949805215029B92091AA003091AB0036
:100170004091AC005091AD00C701B6010E949805B6
:10018000DA01C9010197A109B109892F9A2FAB2F73
:10019000BB2780BDFF90EF90DF90CF9008958091B6
:1001A000AA009091AB00A091AC00B091AD00893253
:1001B0009342A105B10534F487E893E10197F1F783
:1001C00000C000008091AA009091AB00A091AC000B
:1001D000B091AD0089389341A105B10534F487ECA5
:1001E0009FEA0197F1F700C000008091AA0090916A
:1001F000AB00A091AC00B091AD00813B9440A10553
:10020000B1054CF48FE39DE023E081509040204005
:10021000E1F700C0000008955D9BFECF8CB9089502
:100220000F931F93CF93DF938C01C0E0D0E005C004
:100230000E940C010E94CF002196F801EC0FFD1FD7
:1002400080818111F5CFDF91CF911F910F9108959A
:10025000EF92FF920F931F93CF93DF938C017B015B
:10026000C0E0D0E009C0F801EC0FFD1F80810E94C2
:100270000C010E94CF002196F80101900020E9F7BF
:100280003197E01BF10BCE17DF0768F3EA94EF28F4
:1002900079F480E20E940C010E94CF008CE70E945A
:1002A0000C010E94CF0085E40E940C010E94CF0047
:1002B000DF91CF911F910F91FF90EF900895CF9311
:1002C000DF93EB014AE06EE271E00E94D405BE01CB
:1002D0008EE291E00E942801DF91CF9108950F9363
:1002E0001F93CF93DF93EC018B0140E16EE271E04D
:1002F0000E94D405CD2B31F460E070E083E690E0FD
:100300000E942801B8018EE291E00E942801DF914D
:10031000CF911F910F910895409142015091430157
:10032000FA01E355FF4F80818C3771F5FA01E255F0
:10033000FF4F8081853441F580E8E3E4F3E0DF019D
:100340001D928A95E9F781E090E009C0FC01E25531
:10035000FF4F2081FC01EE5BFC4F208301969A0148
:1003600023503109281739078CF792B388E0892781
:1003700082BB109243011092420180E8EEEAF0E065
:10038000DF011D928A95E9F708951F920F920FB62B
:100390000F9211242F933F934F935F936F937F930B
:1003A0008F939F93AF93BF93EF93FF9380914201FD
:1003B00090914301019690934301809342012CB1A7
:1003C000FC01E255FF4F20830E948C018091420185
:1003D000909143018038910524F0109243011092CE
:1003E0004201FF91EF91BF91AF919F918F917F91CA
:1003F0006F915F914F913F912F910F900FBE0F9092
:100400001F9018950F93E7B3EF7BE7BBE7B3E0626C
:10041000E7BBE7B3E061E7BBE7B3E068E7BB0EB972
:100420001DB8EDB1880F991F82959295907F9827FE
:10043000807F98278E2B8DB98DB1440F551F440FA7
:10044000551F440F551F220F331F220F331F406CBF
:10045000242B282B20612DB96031710599F024F4EB
:100460006430710541F022C06034710591F060384C
:100470007105B1F01BC08DB18D7F8DB98DB18E7FAF
:100480008DB914C08DB18D7F8DB98DB181608DB95D
:100490000DC08DB182608DB98DB18E7F8DB906C0D2
:1004A0008DB182608DB98DB181608DB90F91089544
:1004B000E7E8F3E13197F1F700C000008FB9779BCF
:1004C000FECF8FB108958FB9779BFECF8FB108957E
:1004D000FF920F931F93CF93DF93D42F152F062FE7
:1004E000F72EC22F80640E9458028F2D0E9458025E
:1004F000802F0E945802812F0E9458028D2F0E9447
:1005000058028C2F81600E945802DF91CF911F9179
:100510000F91FF900895CF938BB381608BBB87E8D9
:1005200093E10197F1F700C00000C0E007C08BB372
:100530008E7F8BBB8FEF0E945802CF5FCA30B8F31B
:100540008BB381608BBB8FEF0E945802CF910895CF
:10055000CF93C0E003C0CF5FC93030F48FEF0E946B
:1005600063028F3FC1F301C080E8CF910895CF931C
:100570008FEF0E9463028BB38E7F8BBB8FEF0E9445
:10058000630224E940E050E0BA0180E00E94680282
:100590000E94A802C82F8FEF0E9463028BB3816074
:1005A0008BBB8FEF0E9463028C2FCF910895CF9366
:1005B000DF93EC010E94A8028883823080F48FEFE1
:1005C0000E94630289838FEF0E9463028A838FEF08
:1005D0000E9463028B838FEF0E9463028C83DF9102
:1005E000CF910895CF93DF93EC018FEF0E946302C8
:1005F0008BB38E7F8BBB8FEF0E94630226E84AEAA3
:1006000051E060E070E088E00E946802CE010E9444
:10061000D7028FEF0E9463028BB381608BBB8FEF99
:100620000E946302DF91CF910895CF93DF93EC0195
:100630008FEF0E9463028BB38E7F8BBB8FEF0E9484
:10064000630220E040E050E0BA018AE30E946802C1
:10065000CE010E94D7028FEF0E9463028BB38160AC
:100660008BBB8FEF0E946302DF91CF910895CF93F0
:100670008FEF0E9463028BB38E7F8BBB8FEF0E9444
:10068000630220E040E050E0BA0187E30E94680284
:100690000E94A802C82F8FEF0E9463028BB3816073
:1006A0008BBB8FEF0E9463028C2FCF910895CF9365
:1006B0008FEF0E9463028BB38E7F8BBB8FEF0E9404
:1006C000630220E040E050E060E070E489E20E94D4
:1006D00068020E94A802C82F8FEF0E9463028BB3AA
:1006E00081608BBB8FEF0E9463028C2FCF910895A6
:1006F0000F931F93CF93DF9300D000D01F92CDB7FD
:10070000DEB70E948B0200E003C00F5F0B3070F574
:100710000E94B702182F89838130B9F7CE01019664
:100720000E94F2028981813041F58D818A3A01F57A
:1007300010E01536F8F40E9437038983823018F4EC
:100740000E94570389838FE493EC0197F1F700C06F
:1007500000001F5F89818111ECCFCE0101960E94BC
:1007600015038A81882344F014E007C010E005C017
:1007700012E003C013E001C015E0812F0F900F902D
:100780000F900F900F90DF91CF911F910F910895CF
:100790004F925F926F927F92AF92BF92CF92DF9211
:1007A000FF920F931F93CF93DF936C012A013B01BC
:1007B00059018FEFF90180830E9463028BB38E7F12
:1007C0008BBB8FEF0E94630220E0B301A20181E1A5
:1007D0000E9468020E94A8028F3F49F42BC08FEF4D
:1007E0000E946302F82EFEEF8F1303C007C0C0E023
:1007F000D0E02196C43284EFD80789F7EEEFFE12DD
:1008000017C00AC086010C0F1D1F8FEF0E946302E4
:10081000F8018083219602C0C0E0D0E0C115F2E06B
:10082000DF0780F38FEF0E9463028FEF0E94630265
:10083000F501F082DF91CF911F910F91FF90DF9032
:10084000CF90BF90AF907F906F905F904F90089542
:100850000F931F9327EC33E040E050E0BA0184E4AB
:1008600091E00E94C80380914203853509F04BC096
:10087000809143038A3A09F046C085E690E00E94E1
:100880001001A4E4B1E01F96EC911F97F0E0FE2F59
:10089000EE271E968C911E97E80FF11D96962C91CF
:1008A0009697422F50E060E070E0BA015527442748
:1008B00095968C91959790E0982F8827480F591F0F
:1008C000611D711D94968C9194979A01AB01280F2C
:1008D000311D411D511D5096AC91B0E00E94BA05EA
:1008E0008F01FF0F220B330BDC01CB01800F911F17
:1008F000A21FB31F8093C3039093C403A093C503A7
:10090000B093C60301C080E01F910F910895CF926C
:10091000DF92EF92FF920F931F93CF93DF93EC013F
:10092000E12CF12C01E010E0C12CD12C5EC08091B3
:10093000C3039091C403A091C503B091C603A7015E
:100940000F2C000C660B770B480F591F6A1F7B1F7B
:1009500027EC33E084E491E00E94C80320E030E01B
:100960003AC0F901EC5BFE4F9081888198132EC04C
:1009700010C0F901E80FF91FEC5BFE4F5081FE013A
:10098000E80FF91F4081541711F000E010E00196C4
:1009900004C080E090E001E010E0FE010190002042
:1009A000E9F73197EC1BFD0B8E179F0710F301152C
:1009B000110549F0D22ECE2C8EE690E00E94100157
:1009C00002E010E00CC00230110549F002301105C0
:1009D00031F02F5F3F4F211582E0380714F20230CB
:1009E000110541F08FEFE81AF80A8FEFE816F806C4
:1009F00009F09DCF012B09F44EC04091C3035091E3
:100A0000C4036091C5037091C6034C0D511D611D57
:100A1000711D27EC33E084E491E00E94C803CD2DE2
:100A2000D0E0FE01E75AFE4F808160E070E090E088
:100A30000E946F01FE01E85AFE4F808160E070E085
:100A400090E00E946F01FE01E15AFE4F808160E05C
:100A500070E090E00E946F01FE01E25AFE4F80813B
:100A600060E070E090E00E946F0188E790E00E94F3
:100A700010018E010BC0F801EC5BFE4F808160E03D
:100A800070E090E00E946F010F5F1F4FCE018096D3
:100A90000817190784F3DF91CF911F910F91FF90F1
:100AA000EF90DF90CF9008950F931F93CF938FE037
:100AB0008ABB8BBB20E835E240E050E068E070E0A4
:100AC00080E090E00E94490000E010E020E030E08B
:100AD00040E050E060E870E080E090E00E940202B8
:100AE0000E947803C82F8BE790E00E94100160E01D
:100AF00070E08C2F90E00E945F01C53099F40E9455
:100B0000280485EA90E00E94870427EC33E046E75A
:100B100055E060E775E084E491E00E94C8038FEF40
:100B200090E002C080E090E0CF911F910F91089576
:100B3000A1E21A2EAA1BBB1BFD010DC0AA1FBB1FE1
:100B4000EE1FFF1FA217B307E407F50720F0A21B53
:100B5000B30BE40BF50B661F771F881F991F1A94C0
:100B600069F760957095809590959B01AC01BD01EA
:100B7000CF0108950E94C505A59F900DB49F900DCB
:100B8000A49F800D911D11240895A29FB001B39FD1
:100B9000C001A39F700D811D1124911DB29F700D86
:100BA000811D1124911D0895BB274A3031F49923EA
:100BB00022F4BDE2909581959F4F0C94E005BB27F0
:100BC000FB015527AA27880F991FAA1FA41710F009
:100BD000A41B83955051B9F7A05DAA3308F0A95D15
:100BE000A193009779F7B111B1931192CB010C94B5
:100BF000F905DC01FC01672F71917723E1F732974A
:100C000004C07C916D9370836291AE17BF07C8F3E7
:060C10000895F894FFCFE7
:100C160030780030000D0A2056616C6964000D0AB8
:100C260020466F756E6420000D0A000D0A48656C3B
:100C36006C6F20566F69642E2049206861766520A6
:100C460061776F6B656E0D0A20526573706F6E73F8
:0A0C560065207C2000564F49440041
:00000001FF
