:100000000C942A000C9447000C9447000C9438017F
:100010000C9447000C9447000C9447000C94470044
:100020000C9447000C9447000C9447000C94470034
:100030000C9447000C9447000C9447000C94470024
:100040000C9447000C9447000C9447000C94470014
:100050000C94470011241FBECFE5D4E0DEBFCDBF16
:1000600010E0A0E6B0E0E6EFF7E002C005900D92E8
:10007000AE39B107D9F722E0AEE9B0E001C01D9278
:10008000AE3BB207E1F70E9416030C94F9030C94FF
:100090000000C19A85E88A95F1F70000C19885E8CB
:1000A0008A95F1F700000895CF93C82F8091B80288
:1000B0009091B902089721F4C8BBC0980E944900EA
:1000C0008091B8029091B902049741F588B38F707E
:1000D0009C2F907F892B88BBC098C19A36E03A95B7
:1000E000F1F700C0C19883EF91E00197F1F700C0EC
:1000F000000088B3282F2F7030E1C39FC001112466
:10010000822B88BBC19A86E08A95F1F700C0C1981E
:100110008FE097E20197F1F700C0000018BACF9185
:100120000895CF93C82F8091B8029091B902089793
:1001300029F4C8BBC09A0E94490018BA8091B8023D
:100140009091B902049741F588B38F709C2F907FEE
:10015000892B88BBC09AC19A36E03A95F1F700C066
:10016000C19883EF91E00197F1F700C0000088B3D8
:10017000282F2F7030E1C39FC0011124822B88BB30
:10018000C19A86E08A95F1F700C0C1988FE097E2A6
:100190000197F1F700C0000018BACF91089590E0E0
:1001A0009093B9028093B8020897D9F48CE00E942A
:1001B00054002FE784E89EE1215080409040E1F711
:1001C00000C0000088E30E9454008EE00E945400AA
:1001D00086E00E94540081E00E94540080E80E9462
:1001E00054008091B8029091B902049791F483E38E
:1001F0000E94540082E30E94540088E20E9454004E
:100200008EE00E94540080E10E94540081E00C9432
:100210005400089581E00C945400CF93DF93EC01D7
:100220008991882319F00E949100FACFDF91CF9134
:100230000895CF93DF93CDB7DEB7C456D1090FB67B
:10024000F894DEBF0FBECDBFAB01BE016F5F7F4F25
:100250000E94B903CE0101960E940D01CC59DF4FD7
:100260000FB6F894DEBF0FBECDBFDF91CF910895DA
:100270001F920F920FB60F9211248F9382B3805862
:1002800082BB8F910F900FBE0F901F901895CF9249
:10029000DF92EF92FF922093B2023093B302409329
:1002A000B4025093B5022AB128692AB98130910568
:1002B00059F08230910559F0892B61F480B58F7E19
:1002C00080BD80B58F7D05C080B5806302C080B5DC
:1002D000806280BD67307105D1F03CF465307105F6
:1002E00069F066307105C9F01BC06830710591F086
:1002F00069307105A9F480B5866011C080B58D7F25
:1003000080BD80B58B7F80BD80B58B7F08C080B5F8
:10031000846005C080B5846080BD80B5826080BD8A
:1003200080EDC82E82E1D82E83E1E82EF12C2091B9
:10033000B2023091B3024091B4025091B502C701AC
:10034000B6010E949703215029B92091B202309141
:10035000B3024091B4025091B502C701B6010E94A8
:100360009703DA01C9010197A109B109892F9A2FD1
:10037000AB2FBB2780BDFF90EF90DF90CF9008950B
:100380008091B2029091B302A091B402B091B502F3
:1003900089329342A105B10534F487E893E10197CE
:1003A000F1F700C000008091B2029091B302A091D9
:1003B000B402B091B50289389341A105B10534F476
:1003C00087EC9FEA0197F1F700C000008091B2022C
:1003D0009091B302A091B402B091B502813B9440D8
:1003E000A105B1054CF48FE39DE023E081509040DE
:1003F0002040E1F700C0000008955D9BFECF8CB95E
:100400000895CF93DF93EC018991882329F00E940E
:10041000FD010E94C001F8CFDF91CF91089511B87E
:1004200081E180B9089594EA96BF06B607FEFDCF34
:1004300091B1987F983071F483B984E886BF06B68D
:1004400007FEFDCF81B1887F883131F0803231F0F5
:1004500083E0089580E0089581E0089582E00895A2
:1004600094EA96BF06B607FEFDCF91B1987F903112
:1004700071F483B984E886BF06B607FEFDCF81B16B
:10048000887F803431F0803231F083E0089580E05D
:10049000089581E0089582E0089584E986BF06B654
:1004A00004FCFDCF089583B984E886BF06B607FE35
:1004B000FDCF81B1887F883221F0803321F082E046
:1004C000089580E0089581E0089584EC86BF06B623
:1004D00007FEFDCF83B1089584E886BF06B607FE08
:1004E000FDCF83B10895CF93DF93EC0180ED0E949F
:1004F000130280E00E94530281ED0E9430020E94AC
:1005000065028093B6020E9465028093B7020E9442
:100510006C028093BA020E944D022091BA0290911F
:10052000B602892F8077869586958695382F330F6A
:10053000330F830F9F70890F8093B6029091B7029B
:10054000392F3077369536953695432F440F440F23
:10055000340F9F70930F9093B70224FB992790F963
:10056000990F392F330F330F930F322F3F70930FA3
:100570009093BA0288838091B70289838091BA02EE
:100580008A8320722B83DF91CF910895CF93DF93DD
:10059000EC0180ED0E94130283E00E94530281ED82
:1005A0000E9430020E9465028093BC020E94650294
:1005B0008093BD020E9465028093B1020E946C028A
:1005C0008093BB020E944D028091BD02282F2073B0
:1005D000269526952695922F990F990F290F8F70A2
:1005E000280F2093BD028091B10284FB992790F9D6
:1005F000990F392F330F330F930F8F70980F9093FC
:10060000B1028091BB02382F32953F708F704AE063
:10061000349F800D11248093BB023091BC023C8337
:100620002D839E838F83DF91CF910895CF93DF93A6
:10063000CDB7DEB728970FB6F894DEBF0FBECDBF9B
:100640008FEF87BB20E031EE40E050E068E070E0E3
:1006500080E090E00E9447010E940F0284E00E9427
:10066000CF0085E690E00E940102CE0101960E9433
:100670007302CE0101960E94C6022FEF88E09DE32F
:10068000215080409040E1F700C000000E940A0124
:1006900080E80E9454008B816AE070E090E00E9444
:1006A00019018FE890E00E940D018A816AE070E0F4
:1006B00090E00E9419018FE890E00E940D0189816D
:1006C0006AE070E090E00E9419018C81811103C002
:1006D00081E990E002C085E990E00E940D0180EC84
:1006E0000E9454008D816AE070E090E00E94190140
:1006F00089E990E00E940D018F816AE070E090E04E
:100700000E9419018CE990E00E940D018E816AE03F
:1007100070E090E00E9419018CE990E00E940D01C8
:1007200088856AE070E090E00E9419019ECFA1E206
:100730001A2EAA1BBB1BFD010DC0AA1FBB1FEE1F5B
:10074000FF1FA217B307E407F50720F0A21BB30BA6
:10075000E40BF50B661F771F881F991F1A9469F722
:1007600060957095809590959B01AC01BD01CF017E
:1007700008954532510520F4423010F00C94C40322
:10078000FB011082CB010895BB274A3031F4992335
:1007900022F4BDE2909581959F4F0C94D003BB2726
:1007A000FB015527AA27880F991FAA1FA41710F02D
:1007B000A41B83955051B9F7A05DAA3308F0A95D39
:1007C000A193009779F7B111B1931192CB010C94D9
:1007D000E903DC01FC01672F71917723E1F7329780
:1007E00004C07C916D9370836291AE17BF07C8F30C
:0607F0000895F894FFCF0C
:1007F60030780030000D0A48656C6C6F20566F69C2
:10080600642E204920686176652061776F6B656E7E
:100816000D0A20526573706F6E7365207C20003A56
:0E0826000020414D0020504D002020002F00EA
:00000001FF
