:100000000C942A000C943F000C943F000C943F0089
:100010000C943F000C943F000C943F000C943F0064
:100020000C943F000C943F000C943F000C943F0054
:100030000C943F000C943F000C943F000C943F0044
:100040000C943F000C943F000C943F000C943F0034
:100050000C943F0011241FBECFE5D4E0DEBFCDBF1E
:1000600010E0A0E6B0E0ECE2FAE002C005900D92EC
:10007000AA39B107D9F70E9441000C9414050C94D9
:100080000000CF93DF93CDB7DEB7CF52D1400FB68C
:10009000F894DEBF0FBECDBF00E011EE20E030E0EF
:1000A00048E050E060E070E0CE0109960E94A101B6
:1000B000CE018D5D9E4F0E94030384E291E08C0F80
:1000C0009D1F07960E94030364E0CE01845D9E4F4E
:1000D0000E9443048FEF87BBCE018D5D9E4F0E942F
:1000E000070364E0CE01845D9E4F0E94F90360E641
:1000F00070E0CE0109960E94DE0101E020E04AE2B4
:1001000064E0CE018C5D9E4F0E94F501BE016F5FE1
:100110007F4FCE018C5D9E4F0E944A02BE016F5FF1
:100120007F4FCE018C5D9E4F0E94A6022FEF88E08C
:100130009DE3215080409040E1F700C00000CE01D7
:10014000845D9E4F0E94520440E050E060E070E009
:10015000CE01845D9E4F0E9455046B8170E04AE0A1
:1001600050E0CE01845D9E4F0E947F046AE870E0FB
:10017000CE01845D9E4F0E947D046A8170E04AE05A
:1001800050E0CE01845D9E4F0E947F046AE870E0DB
:10019000CE01845D9E4F0E947D04698170E04AE03B
:1001A00050E0CE01845D9E4F0E947F048C818111BE
:1001B00008C06CE870E0CE01845D9E4F0E947D0413
:1001C00007C060E970E0CE01845D9E4F0E947D040F
:1001D00040E050E061E070E0CE01845D9E4F0E94FF
:1001E00055046D8170E04AE050E0CE01845D9E4F81
:1001F0000E947F0464E970E0CE01845D9E4F0E94FE
:100200007D046F8170E04AE050E0CE01845D9E4F36
:100210000E947F0467E970E0CE01845D9E4F0E94DA
:100220007D046E8170E04AE050E0CE01845D9E4F17
:100230000E947F0467E970E0CE01845D9E4F0E94BA
:100240007D04688570E04AE050E0CE01845D9E4FF9
:100250000E947F045BCFCF92DF92EF92FF920F93C9
:100260001F93CF93DF93EC01088319832A833B8389
:100270008AB188698AB96130710559F062307105B7
:1002800059F0672B61F480B58F7E80BD80B58F7D7E
:1002900005C080B5806302C080B5806280BD4730F4
:1002A0005105D1F03CF44530510569F04630510517
:1002B000C9F01BC04830510591F049305105A9F4EF
:1002C00080B5866011C080B58D7F80BD80B58B7F85
:1002D00080BD80B58B7F08C080B5846005C080B5C7
:1002E000846080BD80B5826080BD80EDC82E82E1D3
:1002F000D82E83E1E82EF12C288139814A815B8157
:10030000C701B6010E94B204215029B92881398160
:100310004A815B81C701B6010E94B204DA01C901BA
:100320000197A109B109892F9A2FAB2FBB2780BD57
:10033000DF91CF911F910F91FF90EF90DF90CF90C1
:1003400008950F931F930E942B011F910F91089501
:10035000FC0180819181A281B38189329342A10500
:10036000B10534F487E893E10197F1F700C000008C
:1003700080819181A281B38189389341A105B10522
:1003800034F487EC9FEA0197F1F700C00000808108
:100390009181A281B381813B9440A105B1054CF4C8
:1003A0008FE39DE023E0815090402040E1F700C0C2
:1003B000000008955D9BFECF6CB908950F931F93C5
:1003C000CF93DF93EC018B01F80161918F016623DC
:1003D00039F0CE010E94DA01CE010E94A801F4CFCB
:1003E000DF91CF911F910F910895EF92FF920F939C
:1003F0001F93CF93DF93EC01562F302FBAE0822F5B
:100400006B2F0E94A604A6EF8A9F200D112490E175
:10041000899FB0011124E22EE62A842F6B2F0E94BF
:10042000A6048A9F400D112490E1899FF0011124B8
:10043000F42EFE2A852F0E94A604052F8A9F000D08
:10044000112490E1899FA0011124402B80E2389F64
:1004500080011124042B279660EDCE010E940B032E
:1004600060E0CE010E944B036E2DCE010E944B0333
:100470006F2DCE010E944B03602F6064CE010E945D
:100480004B03CE01DF91CF911F910F91FF90EF9021
:100490000C944503EF92FF920F931F93CF93DF933A
:1004A000EC017B018C01095F1F4F60EDC8010E94C8
:1004B0000B0360E0C8010E944B0361EDC8010E947C
:1004C0002803C8010E945D038883C8010E945D0360
:1004D0008983C8010E9464038A83C8010E9445037E
:1004E0002A819881892F8077869586958695382FE1
:1004F000330F330F830F9F70890F88839981392FB2
:100500003077369536953695432F440F440F340F88
:100510009F70930F998324FB992790F9990F392F96
:10052000330F330F930F322F3F70930F9A83F701DE
:100530008083898181838A81828320722383DF91F2
:10054000CF911F910F91FF90EF900895EF92FF923E
:100550000F931F93CF93DF93EC017B018C01095F15
:100560001F4F60EDC8010E940B0363E0C8010E94A9
:100570004B0361EDC8010E942803C8010E945D037E
:100580008B83C8010E945D038C83C8010E945D03B8
:100590008D83C8010E9464038E83C8010E944503B5
:1005A0008C81982F9073969596959695292F220F6A
:1005B000220F920F8F70890F8C838D8184FB992776
:1005C00090F9990F292F220F220F920F8F70890F08
:1005D0008D838E81982F92959F708F702AE0929FC5
:1005E000800D11248E838B81F70184838C81858318
:1005F0008D8186838E818783DF91CF911F910F91AB
:10060000FF90EF90089511B881E180B9089511B875
:1006100081E180B9089584EA86BF06B607FEFDCF62
:1006200081B1887F883071F463B984E886BF06B6EB
:1006300007FEFDCF81B1887F883131F0803231F003
:1006400083E0089580E0089581E0089582E00895B0
:1006500084EA86BF06B607FEFDCF81B1887F803170
:1006600071F463B984E886BF06B607FEFDCF81B199
:10067000887F803431F0803231F083E0089580E06B
:10068000089581E0089582E0089584E986BF06B662
:1006900004FCFDCF089563B984E886BF06B607FE63
:1006A000FDCF81B1887F883221F0803321F082E054
:1006B000089580E0089581E0089584EC86BF06B631
:1006C00007FEFDCF83B1089584E886BF06B607FE16
:1006D000FDCF83B10895C19A85E88A95F1F70000AE
:1006E000C19885E88A95F1F7000008950F931F934C
:1006F000CF938C01C62FFC0180819181089729F44A
:1007000068BBC098C8010E946B03F8018081918189
:10071000049741F588B38F709C2F907F892B88BBFD
:10072000C098C19AF6E0FA95F1F700C0C19883EF3E
:1007300091E00197F1F700C0000068B3862F8F7039
:1007400090E1C99FB0011124682B68BBC19AE6E013
:10075000EA95F1F700C0C1988FE097E20197F1F7B1
:1007600000C0000018BACF911F910F9108950F9308
:100770001F93CF938C01C62FFC0180819181089734
:1007800031F468BBC09AC8010E946B0318BAF80123
:1007900080819181049741F588B38F709C2F907F61
:1007A000892B88BBC09AC19AF6E0FA95F1F700C090
:1007B000C19883EF91E00197F1F700C0000068B3A2
:1007C000862F8F7090E1C99FB0011124682B68BB00
:1007D000C19AE6E0EA95F1F700C0C1988FE097E290
:1007E0000197F1F700C0000018BACF911F910F9147
:1007F0000895CF93DF93EC0170E0798368836830CC
:10080000710501F56CE00E9476032FE784E89EE114
:10081000215080409040E1F700C0000068E3CE0125
:100820000E9476036EE0CE010E94760366E0CE0160
:100830000E94760361E0CE010E94760360E8CE015B
:100840000E947603888199810497D1F463E3CE01F5
:100850000E94760362E3CE010E94760368E2CE0135
:100860000E9476036EE0CE010E94760360E1CE0125
:100870000E94760361E0CE01DF91CF910C94760364
:10088000DF91CF9108951F93CF93DF93EC01162F43
:1008900002960E94A504612FCE01DF91CF911F9196
:1008A0000C94F90361E00C9476036115710539F439
:1008B000403151057CF44F70642F606809C061308D
:1008C000710541F4403151052CF44F70642F606C78
:1008D0000C94760308950F931F93CF93DF938C01AD
:1008E000EB016991662321F0C8010E94B703F9CF9B
:1008F000DF91CF911F910F9108950C946B040F938A
:100900001F93CF93DF93CDB7DEB7C456D1090FB68F
:10091000F894DEBF0FBECDBF8C01CB01BE016F5F6F
:100920007F4F0E94D404BE016F5F7F4FC8010E94B9
:100930006B04CC59DF4F0FB6F894DEBF0FBECDBFAE
:10094000DF91CF911F910F9108950895991B79E040
:1009500004C0991F961708F0961B881F7A95C9F74F
:1009600080950895A1E21A2EAA1BBB1BFD010DC0A4
:10097000AA1FBB1FEE1FFF1FA217B307E407F5074F
:1009800020F0A21BB30BE40BF50B661F771F881F2B
:10099000991F1A9469F760957095809590959B01C1
:1009A000AC01BD01CF0108954532510520F442301C
:1009B00010F00C94DF04FB011082CB010895BB27DB
:1009C0004A3031F4992322F4BDE2909581959F4FEE
:1009D0000C94EB04BB27FB015527AA27880F991F0E
:1009E000AA1FA41710F0A41B83955051B9F7A05D5E
:1009F000AA3308F0A95DA193009779F7B111B193DB
:100A00001192CB010C940405DC01FC01672F71915C
:100A10007723E1F7329704C07C916D9370836291E4
:0C0A2000AE17BF07C8F30895F894FFCF8D
:100A2C000D0A48656C6C6F20566F69642E20492046
:100A3C00686176652061776F6B656E0D0A20526573
:100A4C0073706F6E7365207C20003A0020414D005E
:0A0A5C0020504D002020002F000064
:00000001FF
